:020000040000FA
:1000000060020010A9010000B1010000B30100006E
:10001000B5010000B7010000B901000000000000B8
:10002000000000000000000000000000BB01000014
:10003000BD01000000000000BF010000C101000080
:10004000C3010000C3010000C3010000C3010000A0
:10005000C3010000C3010000C3010000C301000090
:10006000C3010000C3010000C3010000C301000080
:10007000C3010000C3010000C3010000C301000070
:10008000C3010000C3010000C3010000C301000060
:10009000C3010000C3010000C3010000C301000050
:1000A000C3010000C3010000C3010000C301000040
:1000B000C3010000C3010000C3010000C301000030
:1000C000C3010000C3010000C3010000C301000020
:1000D000C3010000C3010000C3010000C301000010
:1000E000C3010000C3010000C3010000C301000000
:1000F000C3010000C3010000C3010000C3010000F0
:10010000C3010000C3010000C3010000C3010000DF
:10011000C3010000C3010000C3010000C3010000CF
:10012000C3010000C301000000F002F800F02CF849
:100130000AA090E8000C82448344AAF10107DA4542
:1001400001D100F021F8AFF2090EBAE80F0013F068
:10015000010F18BFFB1A43F0010318470401000008
:10016000140100000023002400250026103A28BFB7
:1001700078C1FBD8520728BF30C148BF0B60704719
:100180001FB51FBD10B510BD00F02FF81146FFF7C9
:10019000F7FF00F01BF900F04DF803B4FFF7F2FF92
:1001A00003BC00F055F800000948804709480047A3
:1001B000FEE7FEE7FEE7FEE7FEE7FEE7FEE7FEE717
:1001C000FEE7FEE704480549034A054B7047000077
:1001D000010300002901000060000010600200100F
:1001E00060000010704770477047754600F02CF8AB
:1001F000AE4605006946534620F00700854618B014
:1002000020B5FFF7DFFFBDE820404FF000064FF0BC
:1002100000074FF000084FF0000B21F00701AC463B
:10022000ACE8C009ACE8C009ACE8C009ACE8C0095A
:100230008D46704710B50446AFF300802046BDE8F8
:100240001040FFF7AABF00000048704700000010F0
:1002500001491820ABBEFEE72600020070470000EF
:10026000980400000000001060020000640100001B
:10027000000000000000000000000000000000007E
:10028000000000000000000000000000000000006E
:10029000000000000000000000000000000000005E
:1002A000000000000000000000000000000000004E
:1002B000000000000000000000000000000000003E
:1002C000000000000000000000000000000000002E
:1002D000000000000000000000000000000000001E
:1002E000000000000000000000000000000000000E
:1002F000000000000000000000000000FFFFFFFF02
:1003000008B53048006820F020002F49C1F83802B5
:1003100000200862009003E000BF0098401C00909D
:100320000098C828F8D301202749086400204864B1
:1003300001204864252088602248006820F0800061
:10034000C1F8380200BF2048C06800F00100002852
:10035000F9D003201C49086700204867012048673E
:1003600088670846806F1849B03108601648D0F891
:10037000380220F480601449C1F838020846D0F8E9
:10038000380220F480700F49086001200E4988640B
:100390000020C8640120C8642320086100BF0A4807
:1003A000406900F001000028F9D000200649C03162
:1003B00008600549C1F8C00001200349C831086040
:1003C00008BD000038820440008004404FF6FF70F2
:1003D0002E49086059E07F202D490860002000E088
:1003E000401C2C498842FBDB0C2029490860002076
:1003F00000E0401C27498842FBDBB6202449086006
:10040000002000E0401C23498842FBDB9F2020495C
:100410000860002000E0401C1E498842FBDBCC2025
:100420001B490860002000E0401C1A498842FBDBA1
:10043000DA2017490860002000E0401C1549884276
:10044000FBDBFB2012490860002000E0401C114942
:100450008842FBDB0F200E490860002000E0401CB2
:100460000C498842FBDBFF2009490860002000E0BE
:10047000401C08498842FBDBDF200549086000205A
:1004800000E0401C03498842FBDBA4E700800050E9
:08049000FC3F0050E093040062
:04000005000001A94D
:00000001FF
