:020000040000FA
:1000000068020010C5010000CD010000CF01000012
:10001000D1010000D3010000D50100000000000064
:10002000000000000000000000000000D7010000F8
:10003000D901000000000000DB010000DD0100002C
:10004000DF010000DF010000DF010000DF01000030
:10005000DF010000DF010000DF010000DF01000020
:10006000DF010000DF010000DF010000DF01000010
:10007000DF010000DF010000DF010000DF01000000
:10008000DF010000DF010000DF010000DF010000F0
:10009000DF010000DF010000DF010000DF010000E0
:1000A000DF010000DF010000DF010000DF010000D0
:1000B000DF010000DF010000DF010000DF010000C0
:1000C000DF010000DF010000DF010000DF010000B0
:1000D000DF010000DF010000DF010000DF010000A0
:1000E000DF010000DF010000DF010000DF01000090
:1000F000DF010000DF010000DF010000DF01000080
:10010000DF010000DF010000DF010000DF0100006F
:10011000DF010000DF010000DF010000DF0100005F
:10012000DF010000DF01000000F002F800F03AF803
:100130000AA090E8000C82448344AAF10107DA4542
:1001400001D100F02FF8AFF2090EBAE80F0013F05A
:10015000010F18BFFB1A43F0010318478C0300007E
:10016000AC030000103A24BF78C878C1FAD852070F
:1001700024BF30C830C144BF04680C607047000021
:100180000023002400250026103A28BF78C1FBD8A0
:10019000520728BF30C148BF0B6070471FB51FBD55
:1001A00010B510BD00F02FF81146FFF7F7FF00F073
:1001B00053F900F04DF803B4FFF7F2FF03BC00F071
:1001C00055F800000948804709480047FEE7FEE768
:1001D000FEE7FEE7FEE7FEE7FEE7FEE7FEE7FEE7F7
:1001E00004480549034A054B70470000010300001D
:1001F000290100006800001068020010680000106B
:10020000704770477047754600F02CF8AE46050001
:100210006946534620F00700854618B020B5FFF721
:10022000DFFFBDE820404FF000064FF000074FF021
:1002300000084FF0000B21F00701AC46ACE8C00904
:10024000ACE8C009ACE8C009ACE8C0098D4670470D
:1002500010B50446AFF300802046BDE81040FFF71C
:10026000AABF000000487047040000100149182090
:10027000ABBEFEE726000200704700000021164AD0
:1002800011601146096841EA40011160134909688B
:1002900021F00101114A11601146096821F00201A3
:1002A00011601146096841F00401116000210C4AF7
:1002B000116004E00A490968491C094A11600849AB
:1002C000096840F6B8329142F4D30449096821F034
:1002D0000401024A11607047FC3F0050FC3F03508C
:1002E0000000001000B5034603E013F8010B00F016
:1002F0006DF818780028F8D100BD0000FFFFFFFF5F
:1003000008B53048006820F020002F49C1F83802B5
:1003100000200862009003E000BF0098401C00909D
:100320000098C828F8D301202749086400204864B1
:1003300001204864252088602248006820F0800061
:10034000C1F8380200BF2048C06800F00100002852
:10035000F9D003201C49086700204867012048673E
:1003600088670846806F1849B03108601648D0F891
:10037000380220F480601449C1F838020846D0F8E9
:10038000380220F480700F49086001200E4988640B
:100390000020C8640120C8642320086100BF0A4807
:1003A000406900F001000028F9D000200649C03162
:1003B00008600549C1F8C00001200349C831086040
:1003C00008BD000038820440008004400021164A25
:1003D00011601146096841EA40011160134909683A
:1003E00041F00101114A11601146096821F0020132
:1003F00011601146096841F00401116000210C4AA6
:10040000116004E00A490968491C094A1160084959
:10041000096840F6B8329142F4D30449096821F0E2
:100420000401024A11607047FC3F0050FC3F03503A
:100430000000001000B53820FFF720FF0C20FFF768
:100440001DFF0620FFF71AFF0120FFF717FF80208E
:10045000FFF714FF00BD00004FF6FF701B49086056
:100460001B490860FFF7E6FF8A20FFF707FF19A086
:10047000FFF738FF29E01A48006800F0400090B903
:100480001C20FFF7FBFE00201649086004E0154819
:100490000068401C134908601248006840F6B831F3
:1004A0008842F4D302E01820FFF7E8FE00200D494F
:1004B000086004E00B480068401C0A4908600948CD
:1004C000006840F6B8318842F4D3D4E70080005089
:1004D0000080035048656C6C6F20576F726C64002D
:1004E000FC3F015000000010080500000000001053
:1004F00004000000640100000C050000040000106E
:0C05000064020000800100000000000008
:04000005000001C531
:00000001FF
