:020000040000FA
:1000000068020010C5010000CD010000CF01000012
:10001000D1010000D3010000D50100000000000064
:10002000000000000000000000000000D7010000F8
:10003000D901000000000000DB010000DD0100002C
:10004000DF010000DF010000DF010000DF01000030
:10005000DF010000DF010000DF010000DF01000020
:10006000DF010000DF010000DF010000DF01000010
:10007000DF010000DF010000DF010000DF01000000
:10008000DF010000DF010000DF010000DF010000F0
:10009000DF010000DF010000DF010000DF010000E0
:1000A000DF010000DF010000DF010000DF010000D0
:1000B000DF010000DF010000DF010000DF010000C0
:1000C000DF010000DF010000DF010000DF010000B0
:1000D000DF010000DF010000DF010000DF010000A0
:1000E000DF010000DF010000DF010000DF01000090
:1000F000DF010000DF010000DF010000DF01000080
:10010000DF010000DF010000DF010000DF0100006F
:10011000DF010000DF010000DF010000DF0100005F
:10012000DF010000DF01000000F002F800F03AF803
:100130000AA090E8000C82448344AAF10107DA4542
:1001400001D100F02FF8AFF2090EBAE80F0013F05A
:10015000010F18BFFB1A43F00103184720010000EC
:1001600040010000103A24BF78C878C1FAD852077D
:1001700024BF30C830C144BF04680C607047000021
:100180000023002400250026103A28BF78C1FBD8A0
:10019000520728BF30C148BF0B6070471FB51FBD55
:1001A00010B510BD00F02FF81146FFF7F7FF00F073
:1001B0000DF900F04DF803B4FFF7F2FF03BC00F0B7
:1001C00055F800000948804709480047FEE7FEE768
:1001D000FEE7FEE7FEE7FEE7FEE7FEE7FEE7FEE7F7
:1001E00004480549034A054B70470000010300001D
:1001F000290100006800001068020010680000106B
:10020000704770477047754600F02CF8AE46050001
:100210006946534620F00700854618B020B5FFF721
:10022000DFFFBDE820404FF000064FF000074FF021
:1002300000084FF0000B21F00701AC46ACE8C00904
:10024000ACE8C009ACE8C009ACE8C0098D4670470D
:1002500010B50446AFF300802046BDE81040FFF71C
:10026000AABF000000487047040000100149182090
:10027000ABBEFEE72600020070470000B406000097
:10028000000000100400000064010000B806000037
:100290000400001064020000800100000000000063
:1002A000000000000000000000000000000000004E
:1002B000000000000000000000000000000000003E
:1002C000000000000000000000000000000000002E
:1002D000000000000000000000000000000000001E
:1002E000000000000000000000000000000000000E
:1002F000000000000000000000000000FFFFFFFF02
:1003000008B53048006820F020002F49C1F83802B5
:1003100000200862009003E000BF0098401C00909D
:100320000098C828F8D301202749086400204864B1
:1003300001204864252088602248006820F0800061
:10034000C1F8380200BF2048C06800F00100002852
:10035000F9D003201C49086700204867012048673E
:1003600088670846806F1849B03108601648D0F891
:10037000380220F480601449C1F838020846D0F8E9
:10038000380220F480700F49086001200E4988640B
:100390000020C8640120C8642320086100BF0A4807
:1003A000406900F001000028F9D000200649C03162
:1003B00008600549C1F8C00001200349C831086040
:1003C00008BD000038820440008004404FF6FF70F2
:1003D000B2490860B2490860B24908605DE1B248BC
:1003E000006800F04000002872D1B048006840F07A
:1003F0000200AE4908600020AD49086004E0AC4846
:100400000068401CAA490860A948006847F23051BA
:100410008842F4D3A548006820F00200A349086090
:100420000020A349086004E0A1480068401CA049DE
:1004300008609F48006847F230518842F4D39B48D7
:10044000006840F00400994908600020984908605D
:1004500004E097480068401C95490860944800688B
:1004600047F230518842F4D39048006820F00400ED
:100470008E49086000208E49086004E08C480068BE
:10048000401C8B4908608A48006847F23051884216
:10049000F4D38648006840F00800844908600020D2
:1004A0008349086004E082480068401C8049086075
:1004B0007F48006847F230518842F4D37B48006897
:1004C00020F008007949086000207949086005E0BB
:1004D00034E077480068401C75490860744800683B
:1004E00047F230518842F4D37048006840F0100061
:1004F0006E49086000206E49086004E06C4800689E
:10050000401C6B4908606A48006847F230518842D5
:10051000F4D36648006820F01000644908600020A9
:100520006349086004E062480068401C6049086054
:100530005F48006847F230518842F4D35A48006857
:1005400000F02000002872D15848006840F01000E8
:100550005649086000205649086004E05448006885
:10056000401C534908605248006847F230518842A5
:10057000F4D34E48006820F010004C490860002079
:100580004B49086004E04A480068401C484908603C
:100590004748006847F230518842F4D34348006826
:1005A00040F008004149086000204149086004E02B
:1005B0003F480068401C3E4908603D48006847F2DB
:1005C00030518842F4D33948006820F00800374998
:1005D000086000203649086004E035480068401C87
:1005E000334908603248006847F230518842F4D3FA
:1005F0002E48006840F004002C49086000202C4977
:10060000086004E02A480068401C2949086028481E
:10061000006847F230518842F4D32448006820F043
:1006200004002249086000202149086005E034E008
:100630001F480068401C1E4908601D48006847F2BA
:1006400030518842F4D31948006840F0020017493D
:10065000086000201649086004E015480068401C46
:10066000134908601248006847F230518842F4D3B9
:100670000E48006820F002000C49086000200C4978
:10068000086004E00A480068401C094908600848FE
:10069000006847F230518842F4D3A0E60080005051
:1006A0000080035000800250FC3F0150FC3F02508C
:0806B000000000100000000032
:04000005000001C531
:00000001FF
